:020000040800F2
:10800000E8060020398200088B920008DF91000802
:10801000899200082F84000849970008000000009A
:108020000000000000000000000000008F92000827
:1080300031840008000000008D9200089192000831
:1080400053820008538200085382000853820008BC
:1080500053820008538200085382000853820008AC
:10806000538200085382000853820008538200089C
:10807000538200085382000853820008538200088C
:108080005382000853820008538200080000000059
:108090000000000000000000000000005382000803
:1080A000538200085382000853820008538200085C
:1080B000538200085382000853820008538200084C
:1080C000538200085382000853820008538200083C
:1080D00053820008538200083D970008000000000A
:1080E00053820008538200085382000800000000F9
:1080F00000000000000000000000000053820008A3
:1081000000000000538200085382000853820008D8
:10811000000000000000000000000000000000005F
:1081200053820008538200085382000853820008DB
:108130005382000800000000000000000000000062
:108140000000000000000000000000005382000852
:1081500053820008538200085382000853820008AB
:108160005382000853820008000000000000000055
:1081700000000000000000000000000000000000FF
:108180000000000053820008000000000000000012
:10819000538200085382000800F002F800F03CF817
:1081A0000AA090E8000C82448344AAF10107DA4552
:1081B00001D100F031F8AFF2090EBAE80F0013F068
:1081C000010F18BFFB1A43F00103184760160000A7
:1081D00080160000103A24BF78C878C1FAD8520738
:1081E00024BF30C830C144BF04680C607047000031
:1081F0000023002400250026103A28BF78C1FBD8B0
:10820000520728BF30C148BF0B6070471FB501F04F
:10821000FBFA1FBD10B510BD00F0CFF81146FFF7F7
:10822000F5FF01F0C1FA00F0EDF803B4FFF7F2FF3B
:1082300003BC00F0F5F800000948804709480047F2
:10824000FEE7FEE7FEE7FEE7FEE7FEE7FEE7FEE706
:10825000FEE7FEE704480549054A064B7047000063
:108260001593000899810008E8000020E806002026
:10827000E8020020E802002053EA020C00F06980C6
:108280002DE9F04B4FF00006002B1FBFB3FA83F52A
:1082900003FA05F424FA05F65E4012BF1643B2FA5B
:1082A00082F502FA05F4C5F120051EBF22FA05FC8D
:1082B00044EA0C04203556EA044C4FEA144418BF33
:1082C000641C4FF000084FF00009904271EB030C62
:1082D00039D3002919BFB1FA81F701FA07F6B0FACC
:1082E00080F700FA07F6C7F120071EBF20FA07FC47
:1082F00046EA0C062037B6FBF4FCA7EB0507103F57
:1083000007F01F0BCBF120060CFA0BFB2CFA06F63C
:1083100044BFB3460026202FA4BF5E464FF0000B9B
:108320005BEA060C08BF4FF0010B19EB0B09ABFB26
:10833000027C48EB0608C01B06FB02CC0BFB03CCFF
:1083400071EB0C01C1E70B46024641464846BDE8C9
:10835000F08B13B54FF000004FF00001AFF3008039
:10836000BDE81C4070474FF0000200B5134694462C
:108370009646203922BFA0E80C50A0E80C50B1F17D
:108380002001BFF4F7AF090728BFA0E80C5048BF91
:108390000CC05DF804EB890028BF40F8042B08BF2F
:1083A000704748BF20F8022B11F0804F18BF00F82B
:1083B000012B7047704770477047754600F02CF8E6
:1083C000AE4605006946534620F00700854618B0C2
:1083D00020B5FFF73FFFBDE820404FF000064FF00B
:1083E00000074FF000084FF0000B21F00701AC46EA
:1083F000ACE8C009ACE8C009ACE8C009ACE8C00909
:108400008D46704710B50446AFF300802046BDE8A6
:108410001040FFF70ABF00000048704784000020AA
:1084200001491820ABBEFEE7260002007047FEE7B8
:1084300070477047064A136823F44073136013684B
:108440001360136843F0010313600170704700006C
:10845000103C0240084910B50C6824F440740C60CC
:108460000C6844F440740C600C6844F001040C6027
:108470000260436010BD0000103C0240074A1368D0
:1084800023F440731360136843F48073136013681C
:1084900043F001031360018070470000103C02406C
:1084A000074A136823F440731360136843F400739E
:1084B0001360136843F0010313600160704700000C
:1084C000103C02401C490868C2061C4805D5C26918
:1084D00042F01002C26110220A600A68920605D5B5
:1084E000C26942F00802C26120220A600A6852068C
:1084F00005D5C26942F00402C26140220A600A68DE
:10850000120605D5C26942F00202C26180220A60E9
:108510000A68D20506D5C26942F00102C2614FF471
:1085200080720A600A68920705D5C26942F020028B
:10853000C2610220086070470C3C024064000020C9
:1085400070B5114904460020C86100F06DF9064677
:108550000E4D09E0601C07D024B100F065F9801BC6
:10856000A04201D9032070BD2868C003F2D4286856
:10857000C00701D001202860286810F4F970F2D0FB
:10858000FFF7A0FF012070BD640000200C3C0240FA
:1085900090F83510022903D08021416501207047F1
:1085A000052180F835100068016821F001010160A3
:1085B0000020704770B5044600F036F90546601C8F
:1085C00002D004480078044400F02EF9401BA04279
:1085D000FAD370BD140000200348016841F0004147
:1085E0000160002070470000103C02402DE9F04778
:1085F0001B4E05461446307E1F468946012808D08A
:10860000012030764CF250384046FFF799FF18B100
:1086100014E00220BDE8F0879DB1012D16D0022D97
:1086200019D022463B464846FFF714FF4046FFF765
:1086300087FF0C490A6822F001020A6000213176A6
:10864000E8E7E1B24846FFF7F5FEEFE7A1B248469A
:10865000FFF714FFEAE721464846FFF721FFE5E769
:1086600064000020103C0240074900200A68002AEC
:1086700009DA054A054B0C3A1360054B136009688B
:10868000002900DA01207047103C024023016745B1
:10869000AB89EFCD2DE9F84FDFF860B100224FF044
:1086A00001084FF0030A4FF00F090BF1040E00BF51
:1086B0000B6808FA02F42340A3426ED14D68022DE4
:1086C00001D0122D0ED1D50800EB850CDCF820501E
:1086D0005607F70E09FA07F6B5430E69BE402E435A
:1086E000CCF82060066855000F790AFA05FC07F0FF
:1086F000030726EA0C06AF40374307604E68012E99
:1087000005D0022E03D0112E01D0122E0ED1866874
:10871000CF6826EA0C06AF40374387604668A64319
:108720000C79C4F30014944034434460C6688C68E8
:1087300026EA0C06AC403443C4604C68E40056D5CD
:108740002F4C256845F480452560246822F00305F8
:1087500004F4804400942B4C2E19D6F80848950751
:108760002F0F09FA07F5AC43274DA84201D1002588
:1087700015E0264DA84201D1012510E0244DA84264
:1087800001D102250BE0234DA84201D1032506E0CB
:10879000214DA84202D1042501E028E00725BD4073
:1087A0002543C6F80858DBF800405D464E689C43F8
:1087B000F60300D51C432C60DEF8004075464E6879
:1087C0009C43B60300D51C432C600C4D08352C6827
:1087D0004E689C43F60200D51C432C60074D0C35B7
:1087E0002C684E689C43B60200D51C432C60521C7A
:1087F000102AFFF45DAFBDE8F88F0000003C014097
:1088000044380240003001400000024000040240B1
:1088100000080240000C0240001002400AB18161D1
:1088200070470904FBE700000148806870470000BA
:10883000140000200248816802781144816070476A
:10884000140000200B4810B5016841F4007101606C
:10885000016841F480610160016841F48071016048
:10886000032000F06FF8002000F006F800F024F874
:10887000002010BD003C024070B50D4D04464FF481
:108880007A712878B1FBF0F00A490968B1FBF0F081
:1088900000F0E0FA48B9102C07D200222146501E01
:1088A00000F030F800206C6070BD012070BD000049
:1088B00014000020200000200A4808B5016841F497
:1088C00080410160006800F4804000900548001F6E
:1088D000016841F080510160006800F08050009014
:1088E00008BD000044380240002809DB00F01F02E8
:1088F000012191404009800000F1E020C0F8001102
:1089000070470000F0B40E4B1B680C46C3F3022303
:10891000C3F10705042D00D90425191D072901D22B
:10892000002300E0DB1E012606FA05F1491E214066
:1089300099409E40761E16403143F0BC00F017BFB0
:108940000CED00E0064900F0070208684FF6FF034F
:10895000184040EA0220034A1043086070470000B4
:108960000CED00E00000FA052DE9F0470E46050089
:1089700065D0DFF81481D8F80000F7B200F00F00DE
:10898000B04207D288F80070D8F8000000F00F005D
:10899000B04254D128683D4C810712D5400703D519
:1089A000206840F4E05020602878000703D5206854
:1089B00040F4604020602068A96820F0F00008437F
:1089C00020602878C0072DD0304968680839012810
:1089D00012D0022813D0032811D009688907002972
:1089E0002DDA216821F0030101432160FFF71CFF0C
:1089F000814641F2883A0EE009688903EFE7096889
:108A00008901ECE7FFF710FFA0EB0901514502D9FE
:108A10000320BDE8F0872068696800F00C00B0EB27
:108A2000810FEFD1D8F80010404601F00F01B1429C
:108A300007D90770006800F00F00B04201D0012094
:108A4000E7E72878400705D52068E96820F4E0507A
:108A5000084320602878000706D52068296920F49B
:108A6000604040EAC100206000F036F82168084A02
:108A7000C1F30311515CC840064908600020FFF7AC
:108A8000FBFE0020C5E70000003C02400838024021
:108A90001298000820000020044805490068096871
:108AA000044AC1F38221515CC84070472000002075
:108AB00008380240229800080448054900680968FF
:108AC000044AC1F34231515CC84070472000002085
:108AD0000838024022980008154810B5006810F0C8
:108AE0000C02144813D04110042A0FD0082A0ED1CA
:108AF0000F4C241F2268236802F03F025B0207D557
:108B00002068C0F38810A0FB010106E0084610BDF4
:108B10002168C1F38811A1FB00010023FFF7ACFB22
:108B20002168C1F30141491C4900B0FBF1F010BDBF
:108B3000083802400024F4002DE9F84F050076D0F3
:108B40002878DFF8F8B2BE4CC00749D0DBF8001037
:108B50005846C1F38101012908D00068C0F38100A3
:108B600002280AD1201D0068400206D52068800333
:108B700036D568680028E2D032E06868B0F5803FFA
:108B800010D0B0F5A02F206810D020F480302060E5
:108B9000206820F4802020606868A0B1FFF744FEC0
:108BA00006460CE0206840F48030F4E740F4802072
:108BB0002060F7E7FFF738FE801B642873D8206831
:108BC0008003F7D50CE0FFF72FFE064605E000BF57
:108BD000FFF72AFE801B6428F0D820688003F7D4B2
:108BE0002878DFF8608280074FF000093ED5DBF877
:108BF0000010584611F00C0F09D00068C0F3810036
:108C000002280BD18D48001F0068400206D420685E
:108C1000800715D5E868012809D111E0E868B8B1E6
:108C20000120C8F80000FFF7FFFD064605E002E15D
:108C3000FFF7FAFD801B0228C0D820688007F7D50F
:108C40002068296920F0F80040EAC10020600DE0AA
:108C5000C8F80090FFF7E8FD064604E0FFF7E4FDE2
:108C6000801B02281FD820688007F7D428780007C7
:108C700022D5724E744869696C3671B10121016068
:108C8000FFF7D2FD074604E0FFF7CEFDC01B022828
:108C900009D830688007F7D50EE0C0F80090FFF7DC
:108CA000C3FD074605E083E0FFF7BEFDC01B0228B9
:108CB0007ED830688007F7D42878400768D5DFF879
:108CC0007CA100270AF1380ADAF80000C0000BD4B2
:108CD000DAF8001041F08051CAF80010DAF800000C
:108CE000012700F080500090584E3068C00510D425
:108CF000306840F480703060FFF796FD009005E02A
:108D0000FFF792FD0099401A022851D83068C0053B
:108D1000F6D54A4EA868683601280FD00528306875
:108D200010D020F001003060306820F00400306086
:108D3000A868B8B1FFF778FD00900FE0306840F008
:108D40000100F4E740F004003060F7E7FFF76CFD46
:108D50000099411A41F28830814264D83068800716
:108D6000F4D50EE0FFF760FD009007E0FFF75CFD33
:108D70000099411A41F28830814254D83068800706
:108D8000F4D42FB1DAF8001021F08051CAF80010A5
:108D9000A869C0B3DBF80010C1F3810102294AD0F1
:108DA0000228484607D0C8F86000FFF73DFD00E004
:108DB00039E005463AE04746C8F86000FFF734FD61
:108DC000064604E0FFF730FD801B02282BD8206800
:108DD0008001F7D4D5E907010843A96A1C4A49086C
:108DE00002EB01416A6A41EA8211084395F82C10AE
:108DF00040EA01611148001F016001203866FFF759
:108E000013FD054605E014E0FFF70EFD401B0228A8
:108E100009D820688001F7D50BE000BFFFF704FDFB
:108E2000401B022802D90320BDE8F88F206880018A
:108E3000F4D40020F8E70120F6E7000008380240EB
:108E40000038024000004742800E47420070004058
:108E50000000FFFF10B5401EB0F1807F01D301205C
:108E600010BD4FF0E02460610F21601700F07FFC1F
:108E70000020A06107202061002010BD7047000085
:108E800070B5026804461068D168536910F00F0F7E
:108E900050D003F0010501F4907635435DD0C20750
:108EA00005D0CA0503D5E26B42F00102E263420736
:108EB00005D5DA0703D0E26B42F00202E2638207D3
:108EC00005D5DA0703D0E26B42F00402E263020741
:108ED00005D5DA0703D0E26B42F00802E263E26BE9
:108EE000002A33D0800604D5880602D5204600F03B
:108EF00051FA20684069E16BC0F38010090700D483
:108F000028B3204600F038FA2068416949061AD58E
:108F1000416921F040014161606BA0B11B490165CD
:108F2000606BFFF735FB002810D0606B016DBDE86A
:108F300070400847830610D58B060ED52046BDE845
:108F4000704000F027BA2046FFF798FF70BD20461A
:108F5000FFF794FF0020E06370BD030606D50B0603
:108F600004D52046BDE8704000F0B6BB4006F3D5FE
:108F70004806F1D5D168204621F04001D16020217A
:108F800084F8391000F02AF970BD000069930008D8
:108F900070B5040004D094F83900002510B106E043
:108FA000012070BD84F83850204600F023F82420BA
:108FB00084F839002068C16821F40051C16020465E
:108FC00000F034FA2068016921F4904101612068C1
:108FD000416921F02A0141612068C16841F40051D2
:108FE000C160E563202084F8390084F83A0000204D
:108FF00070BD000010B586B0044614216846FFF726
:10900000B2F917492068884228D11648016841F40E
:1090100000310160006800F40030059011481038FC
:10902000016841F0010101600068694600F001003B
:1090300005900C2000900220019001200290032056
:109040000390072004900848FFF724FB00221146F4
:109050002620FFF757FC2620FFF746FC06B010BD80
:1090600000440040403802400000024090F83A308E
:10907000202B22D1F9B1F2B190F83830012B1CD05D
:1090800081628285C2850021C163222280F83A2054
:1090900080F838100168CA6842F48072CA600168BA
:1090A0004A6942F001024A610068C16841F020014A
:1090B000C160002070470120704702207047000007
:1090C00010B5404900680968884216D108223E4917
:1090D0003C48FFF7CBFF3C4B0020A3F10C02197872
:1090E000532902D0502909D00EE0597853290BD1C9
:1090F0009978532908D10120107010BD5978502952
:1091000002D1997850293DD011780129F5D190608C
:10911000587800F03CFB0446187800F038FB916862
:1091200044EA001008439060D87800F030FB044611
:10913000987800F02CFB916844EA001041EA002086
:109140009060587900F023FB0446187900F01FFB6B
:10915000916844EA001041EA00409060D87900F03C
:1091600016FB0446987900F012FB916844EA00105F
:1091700041EA006014499060091FBDE81040081FD3
:1091800000F0E3BA1070FFF76FFA104C002213469C
:1091900021460220FFF72AFA0D4A00232146022029
:1091A000FFF724FAFFF718FABFF34F8F0948016859
:1091B000094A01F4E06111430160BFF34F8F00BF22
:1091C000FDE70000240000200C0000200000020841
:1091D000004000080CED00E00400FA057047FEE7CF
:1091E00070B586B014216846FFF7BDF81648002414
:1091F000016841F080010160016801F08001059182
:10920000016841F001010160016801F0010105916F
:10921000016841F00801016000680C4E00F0080090
:109220004FF440550590002229463046FFF7F6FAE4
:1092300001200095CDE90104694630460394FFF70B
:1092400029FA06B070BD000030380240000C024020
:109250000C4810B50A4901604FF4165141600021D5
:1092600081600C22C160C0E904128161C161FFF715
:109270008FFE002803D0BDE81040FFF7DAB810BD1C
:109280000044004024000020FEE77047704770470C
:10929000FFF7D0BA30B593B030216846FFF763F8D6
:1092A00014210CA8FFF75FF818480025016841F069
:1092B00080510160006800F08050119014480168EE
:1092C00041F4404101600068022400F440401190E4
:1092D00001200090000401908001CDE9064008AA19
:1092E0000420642182E813000B906846FFF724FCF9
:1092F0000CA90F2081E83100E002CDE90F05032120
:109300000CA8FFF731FB13B030BD0000403802401D
:10931000007000401048016841F4700101600F487E
:10932000016841F0010101600C4A0021083211601E
:1093300002680B4B1A400260031D0A4A1A60026859
:1093400022F48022026005480C3001600249580670
:10935000803908607047000088ED00E00038024066
:10936000FFFFF6FE1030002410B5806B0021C18590
:10937000C184FFF783FD10BD0168CA6822F49072B2
:10938000CA6001684A6922F001024A61202180F81E
:109390003A10704710B590F83A10222901D00220F7
:1093A00010BD8168B1F5805F11D0016900290168A5
:1093B0001FD0496801F07F03816A4A1C82620B70EA
:1093C000C18D491E0904090CC18518D02BE0026922
:1093D000816A002A0268526805D0D2B20A80816A86
:1093E000491C8162ECE7C2F308020A80816A891C89
:1093F000F7E74A68816A4B1C83620A70E0E70168FC
:10940000CA6822F02002CA600168CA6822F4807229
:10941000CA6001684A6922F001024A61202180F88D
:109420003A10FFF74DFE002010BD00002DE9F0417D
:10943000044600680169E26821F44051114301616A
:109440002169A068E2690843616911432268084301
:10945000D16849F20C6399430143D16020684169A6
:10946000A26921F4407111434161E2696425B2F5BA
:10947000004F9748974922684FF032083FD08A4200
:1094800001D082427CD1FFF717FB00EBC00101EB5A
:10949000001061688900B0FBF1F6FFF70DFB00EBEF
:1094A000C00101EB001061688900B0FBF1F0B0FB76
:1094B000F5F06FF01801484306EB800108EB01104E
:1094C000B0FBF5F000F0F006FFF7F6FA00EBC00194
:1094D00001EB001061688900B0FBF1F0B0FBF5F022
:1094E00006EB0016FFF7E8FA00EBC00101EB0010F5
:1094F00061688900B0FBF1F7FFF7DEFAD2E08A423B
:1095000001D082423DD1FFF7D7FA00EBC00101EB59
:10951000001061684900B0FBF1F0B0FBF5F0060106
:10952000FFF7CAFA00EBC00101EB001061684900C7
:10953000B0FBF1F7FFF7C0FA00EBC00101EB001040
:1095400061684900B0FBF1F0B0FBF5F06FF0180175
:10955000484307EB800108EBC100B0FBF5F000F0D9
:10956000F80006EB4006FFF7A7FA00EBC00101EB9D
:10957000001061684900B0FBF1F7FFF79DFA3CE08D
:1095800055E0FFF789FA00EBC00101EB00106168BC
:109590004900B0FBF1F0B0FBF5F00601FFF77CFAF3
:1095A00000EBC00101EB001061684900B0FBF1F76E
:1095B000FFF772FA00EBC00101EB0010616849008F
:1095C000B0FBF1F0B0FBF5F06FF01801484307EB8A
:1095D000800108EBC100B0FBF5F000F0F80006EBED
:1095E0004006FFF759FA00EBC00101EB001061687B
:1095F0004900B0FBF1F7FFF74FFA00EBC00101EBB8
:10960000001061684900B0FBF1F0B0FBF5F06FF0BD
:109610001801484307EB800108EBC100B0FBF5F0EF
:1096200000F00700216830448860BDE8F081FFF752
:1096300033FA00EBC00101EB001061688900B0FB58
:10964000F1F6FFF729FA00EBC00101EB00106168A9
:109650008900B0FBF1F0B0FBF5F06FF01801484362
:1096600006EB800108EB0110B0FBF5F000F0F0060E
:10967000FFF712FA00EBC00101EB001061688900EE
:10968000B0FBF1F0B0FBF5F006EB0016FFF704FAC3
:1096900000EBC00101EB001061688900B0FBF1F73D
:1096A000FFF7FAF900EBC00101EB001061688900D7
:1096B000B0FBF1F0B0FBF5F06FF01801484307EB99
:1096C000800108EB0110B0FBF5F000F00F00A9E7F6
:1096D000001401400010014090F83910212901D0F8
:1096E000022070478168B1F5805F016A0BD04A1C87
:1096F0000262026809785160C18C491E0904090C94
:10970000C1840ED017E009880268C1F308015160D6
:1097100001690029016A02D0491C0162ECE7891C39
:10972000FBE70168CA6822F08002CA600068C1686D
:1097300041F04001C1600020704700000148FFF780
:109740009FBB000024000020FEE770B50D460446D4
:10975000FEF78AFF2A68002302202168FEF746FFF1
:109760002068001D2060BDE87040FEF735BF090786
:10977000090E002804DB00F1E02080F80014704797
:1097800000F00F0000F1E02080F8141D7047A0F1F8
:1097900030010A2901D2C8B27047A0F1410106295F
:1097A000FAD23738C0B27047134912480860FFF741
:1097B00049F8FFF76FFDFFF713FDFFF749FD08229A
:1097C0000E490F48FFF752FC0E4C4FF400564FF471
:1097D000C875012231462046FFF720F82846FEF7DB
:1097E000E9FE002231462046FFF718F82846FEF72A
:1097F000E1FEEEE70080000808ED00E00C0000202C
:1098000024000020000C02404FF04070E1EE100AEE
:10981000704700000000000000000102030406077A
:109820000809000000000102030400004C98000831
:109830000000002024000000D48100087098000877
:1098400024000020C4060000F08100080000000091
:1098500000400008000000000000000000000000C0
:109860000100000010000000000000000024F400CF
:0400000508008199D5
:00000001FF
